{
  "contractName": "Heroes",
  "abi": [
    {
      "anonymous": false,
      "inputs": [
        {
          "indexed": true,
          "internalType": "address",
          "name": "from",
          "type": "address"
        },
        {
          "indexed": false,
          "internalType": "bool",
          "name": "result",
          "type": "bool"
        },
        {
          "indexed": false,
          "internalType": "uint256",
          "name": "reward",
          "type": "uint256"
        }
      ],
      "name": "AttackResult",
      "type": "event"
    },
    {
      "constant": true,
      "inputs": [],
      "name": "balanceOf",
      "outputs": [
        {
          "internalType": "uint256",
          "name": "",
          "type": "uint256"
        }
      ],
      "payable": false,
      "stateMutability": "view",
      "type": "function"
    },
    {
      "constant": false,
      "inputs": [
        {
          "internalType": "address",
          "name": "account",
          "type": "address"
        },
        {
          "internalType": "uint256",
          "name": "amount",
          "type": "uint256"
        }
      ],
      "name": "mint",
      "outputs": [],
      "payable": false,
      "stateMutability": "nonpayable",
      "type": "function"
    },
    {
      "constant": false,
      "inputs": [
        {
          "internalType": "uint256",
          "name": "heroType",
          "type": "uint256"
        },
        {
          "internalType": "uint256",
          "name": "dragonType",
          "type": "uint256"
        }
      ],
      "name": "attack",
      "outputs": [],
      "payable": false,
      "stateMutability": "nonpayable",
      "type": "function"
    },
    {
      "constant": false,
      "inputs": [
        {
          "internalType": "uint256",
          "name": "heroType",
          "type": "uint256"
        },
        {
          "internalType": "uint256",
          "name": "dragonType",
          "type": "uint256"
        }
      ],
      "name": "depend",
      "outputs": [],
      "payable": false,
      "stateMutability": "nonpayable",
      "type": "function"
    },
    {
      "constant": false,
      "inputs": [
        {
          "internalType": "uint256",
          "name": "heroType",
          "type": "uint256"
        },
        {
          "internalType": "uint256",
          "name": "dragonType",
          "type": "uint256"
        }
      ],
      "name": "special",
      "outputs": [],
      "payable": false,
      "stateMutability": "nonpayable",
      "type": "function"
    }
  ],
  "bytecode": "0x608060405234801561001057600080fd5b5061041c806100206000396000f3fe608060405234801561001057600080fd5b50600436106100575760003560e01c806340c10f191461005c578063722713f7146100aa57806385826da8146100c8578063daec068d14610100578063e1fa763814610138575b600080fd5b6100a86004803603604081101561007257600080fd5b81019080803573ffffffffffffffffffffffffffffffffffffffff16906020019092919080359060200190929190505050610170565b005b6100b26101c0565b6040518082815260200191505060405180910390f35b6100fe600480360360408110156100de57600080fd5b810190808035906020019092919080359060200190929190505050610206565b005b6101366004803603604081101561011657600080fd5b810190808035906020019092919080359060200190929190505050610214565b005b61016e6004803603604081101561014e57600080fd5b810190808035906020019092919080359060200190929190505050610222565b005b806000808473ffffffffffffffffffffffffffffffffffffffff1673ffffffffffffffffffffffffffffffffffffffff168152602001908152602001600020600082825401925050819055505050565b60008060003373ffffffffffffffffffffffffffffffffffffffff1673ffffffffffffffffffffffffffffffffffffffff16815260200190815260200160002054905090565b6102108282610222565b5050565b61021e8282610222565b5050565b60008210158015610234575060038211155b61023d57600080fd5b6000811015801561024f575060048111155b61025857600080fd5b600060646102646103ae565b8161026b57fe5b06905060006001905060008084148015610286575060328311155b1561029657603281019050610301565b6001841480156102a7575060288311155b156102b757603c81019050610300565b6002841480156102c85750603c8311155b156102d8576028810190506102ff565b6003841480156102e9575060508311155b156102f9576014810190506102fe565b600091505b5b5b5b806000803373ffffffffffffffffffffffffffffffffffffffff1673ffffffffffffffffffffffffffffffffffffffff168152602001908152602001600020600082825401925050819055503373ffffffffffffffffffffffffffffffffffffffff167f78caeb2d4619dafc76ad0bcf19f0f5af6ab35b54e2e15861ca7495eb251fecf6838360405180831515151581526020018281526020019250505060405180910390a25050505050565b6000444260405160200180838152602001828152602001925050506040516020818303038152906040528051906020012060001c90509056fea265627a7a72315820da5a9fa3e89f6423bb366e5d22dd7c616ba58a01258c4c54e613675b9a3b0fa364736f6c63430005100032",
  "source": "pragma solidity ^0.5.16;\n\ncontract Heroes {\n\n    mapping(address => uint256) private _balances;\n\n    event AttackResult(address indexed from, bool result, uint reward);\n\n    // @reff https://betterprogramming.pub/how-to-generate-truly-random-numbers-in-solidity-and-blockchain-9ced6472dbdf\n    function random() private view returns(uint){\n        return uint(keccak256(abi.encodePacked(block.difficulty, now)));\n    }\n\n    // xem số dư của tài khoản này\n    function balanceOf() public view returns (uint256) {\n        return _balances[msg.sender];\n    }\n\n    // đút thêm tiền cho tài khoản\n    function mint(address account, uint256 amount) public {\n        _balances[account] += amount;\n    }\n\n    // đánh nhau với rồng\n    function attack(uint heroType, uint dragonType) public {\n\n        require(heroType >= 0 && heroType <= 3); // hỗ trợ 4 loại siêu anh hùng: healer, knight, hammer, mage\n        require(dragonType >= 0 && dragonType <= 4); // hỗ trợ 4 loại rồng, tỷ lệ thắng lần lượt là: 20%, 40%, 60%, 80%\n\n        uint rand = random() % 100;\n\n        bool result;\n        result = true;\n        uint reward;\n        // trả về kết quả tuỳ theo tỷ lệ thắng\n        if (dragonType == 0 && rand <= 50) { // đáng lẽ là 20% nhưng cho 50% để test\n             reward += 50;\n        }\n        else if (dragonType == 1 && rand <= 40) {\n            reward += 60;\n        }\n        else if (dragonType == 2 && rand <= 60) {\n            reward += 40;\n        }\n        else if (dragonType == 3 && rand <= 80) {\n            reward += 20;\n        } else {\n            result = false;\n        }\n        _balances[msg.sender] += reward;\n\n        emit AttackResult(msg.sender, result, reward);\n    }\n\n    function depend(uint heroType, uint dragonType) public {\n        attack(heroType, dragonType);\n    }\n\n    function special(uint heroType, uint dragonType) public  {\n        attack(heroType, dragonType);\n    }\n}",
  "sourcePath": "/home/namph12/nft/contracts/Heroes.sol",
  "compiler": {
    "name": "solc",
    "version": "0.5.16+commit.9c3226ce.Emscripten.clang"
  },
  "schemaVersion": "3.4.3",
  "updatedAt": "2021-09-09T09:30:25.658Z",
  "networkType": "ethereum",
  "devdoc": {
    "methods": {}
  },
  "userdoc": {
    "methods": {}
  }
}