{
  "contractName": "Heroes",
  "abi": [
    {
      "inputs": [
        {
          "internalType": "uint256",
          "name": "initialSupply",
          "type": "uint256"
        }
      ],
      "stateMutability": "nonpayable",
      "type": "constructor"
    },
    {
      "anonymous": false,
      "inputs": [
        {
          "indexed": true,
          "internalType": "address",
          "name": "owner",
          "type": "address"
        },
        {
          "indexed": true,
          "internalType": "address",
          "name": "spender",
          "type": "address"
        },
        {
          "indexed": false,
          "internalType": "uint256",
          "name": "value",
          "type": "uint256"
        }
      ],
      "name": "Approval",
      "type": "event"
    },
    {
      "anonymous": false,
      "inputs": [
        {
          "indexed": true,
          "internalType": "address",
          "name": "from",
          "type": "address"
        },
        {
          "indexed": false,
          "internalType": "bool",
          "name": "result",
          "type": "bool"
        },
        {
          "indexed": false,
          "internalType": "uint256",
          "name": "reward",
          "type": "uint256"
        }
      ],
      "name": "AttackResult",
      "type": "event"
    },
    {
      "anonymous": false,
      "inputs": [
        {
          "indexed": true,
          "internalType": "address",
          "name": "from",
          "type": "address"
        },
        {
          "indexed": true,
          "internalType": "address",
          "name": "to",
          "type": "address"
        },
        {
          "indexed": false,
          "internalType": "uint256",
          "name": "value",
          "type": "uint256"
        }
      ],
      "name": "Transfer",
      "type": "event"
    },
    {
      "inputs": [
        {
          "internalType": "address",
          "name": "owner",
          "type": "address"
        },
        {
          "internalType": "address",
          "name": "spender",
          "type": "address"
        }
      ],
      "name": "allowance",
      "outputs": [
        {
          "internalType": "uint256",
          "name": "",
          "type": "uint256"
        }
      ],
      "stateMutability": "view",
      "type": "function",
      "constant": true
    },
    {
      "inputs": [
        {
          "internalType": "address",
          "name": "spender",
          "type": "address"
        },
        {
          "internalType": "uint256",
          "name": "amount",
          "type": "uint256"
        }
      ],
      "name": "approve",
      "outputs": [
        {
          "internalType": "bool",
          "name": "",
          "type": "bool"
        }
      ],
      "stateMutability": "nonpayable",
      "type": "function"
    },
    {
      "inputs": [
        {
          "internalType": "address",
          "name": "account",
          "type": "address"
        }
      ],
      "name": "balanceOf",
      "outputs": [
        {
          "internalType": "uint256",
          "name": "",
          "type": "uint256"
        }
      ],
      "stateMutability": "view",
      "type": "function",
      "constant": true
    },
    {
      "inputs": [],
      "name": "decimals",
      "outputs": [
        {
          "internalType": "uint8",
          "name": "",
          "type": "uint8"
        }
      ],
      "stateMutability": "view",
      "type": "function",
      "constant": true
    },
    {
      "inputs": [
        {
          "internalType": "address",
          "name": "spender",
          "type": "address"
        },
        {
          "internalType": "uint256",
          "name": "subtractedValue",
          "type": "uint256"
        }
      ],
      "name": "decreaseAllowance",
      "outputs": [
        {
          "internalType": "bool",
          "name": "",
          "type": "bool"
        }
      ],
      "stateMutability": "nonpayable",
      "type": "function"
    },
    {
      "inputs": [
        {
          "internalType": "address",
          "name": "spender",
          "type": "address"
        },
        {
          "internalType": "uint256",
          "name": "addedValue",
          "type": "uint256"
        }
      ],
      "name": "increaseAllowance",
      "outputs": [
        {
          "internalType": "bool",
          "name": "",
          "type": "bool"
        }
      ],
      "stateMutability": "nonpayable",
      "type": "function"
    },
    {
      "inputs": [],
      "name": "name",
      "outputs": [
        {
          "internalType": "string",
          "name": "",
          "type": "string"
        }
      ],
      "stateMutability": "view",
      "type": "function",
      "constant": true
    },
    {
      "inputs": [],
      "name": "symbol",
      "outputs": [
        {
          "internalType": "string",
          "name": "",
          "type": "string"
        }
      ],
      "stateMutability": "view",
      "type": "function",
      "constant": true
    },
    {
      "inputs": [],
      "name": "totalSupply",
      "outputs": [
        {
          "internalType": "uint256",
          "name": "",
          "type": "uint256"
        }
      ],
      "stateMutability": "view",
      "type": "function",
      "constant": true
    },
    {
      "inputs": [
        {
          "internalType": "address",
          "name": "recipient",
          "type": "address"
        },
        {
          "internalType": "uint256",
          "name": "amount",
          "type": "uint256"
        }
      ],
      "name": "transfer",
      "outputs": [
        {
          "internalType": "bool",
          "name": "",
          "type": "bool"
        }
      ],
      "stateMutability": "nonpayable",
      "type": "function"
    },
    {
      "inputs": [
        {
          "internalType": "address",
          "name": "sender",
          "type": "address"
        },
        {
          "internalType": "address",
          "name": "recipient",
          "type": "address"
        },
        {
          "internalType": "uint256",
          "name": "amount",
          "type": "uint256"
        }
      ],
      "name": "transferFrom",
      "outputs": [
        {
          "internalType": "bool",
          "name": "",
          "type": "bool"
        }
      ],
      "stateMutability": "nonpayable",
      "type": "function"
    },
    {
      "inputs": [
        {
          "internalType": "uint256",
          "name": "heroType",
          "type": "uint256"
        },
        {
          "internalType": "uint256",
          "name": "dragonType",
          "type": "uint256"
        }
      ],
      "name": "attack",
      "outputs": [],
      "stateMutability": "nonpayable",
      "type": "function"
    },
    {
      "inputs": [
        {
          "internalType": "uint256",
          "name": "heroType",
          "type": "uint256"
        },
        {
          "internalType": "uint256",
          "name": "dragonType",
          "type": "uint256"
        }
      ],
      "name": "depend",
      "outputs": [],
      "stateMutability": "nonpayable",
      "type": "function"
    },
    {
      "inputs": [
        {
          "internalType": "uint256",
          "name": "heroType",
          "type": "uint256"
        },
        {
          "internalType": "uint256",
          "name": "dragonType",
          "type": "uint256"
        }
      ],
      "name": "special",
      "outputs": [],
      "stateMutability": "nonpayable",
      "type": "function"
    }
  ],
  "bytecode": "0x60806040523480156200001157600080fd5b5060405162001df338038062001df383398181016040528101906200003791906200033a565b6040518060400160405280600381526020017f4e616d00000000000000000000000000000000000000000000000000000000008152506040518060400160405280600381526020017f4e414d00000000000000000000000000000000000000000000000000000000008152508160039080519060200190620000bb92919062000273565b508060049080519060200190620000d492919062000273565b505050620000e93382620000f060201b60201c565b5062000537565b600073ffffffffffffffffffffffffffffffffffffffff168273ffffffffffffffffffffffffffffffffffffffff16141562000163576040517f08c379a00000000000000000000000000000000000000000000000000000000081526004016200015a90620003a4565b60405180910390fd5b62000177600083836200026960201b60201c565b80600260008282546200018b9190620003f4565b92505081905550806000808473ffffffffffffffffffffffffffffffffffffffff1673ffffffffffffffffffffffffffffffffffffffff1681526020019081526020016000206000828254620001e29190620003f4565b925050819055508173ffffffffffffffffffffffffffffffffffffffff16600073ffffffffffffffffffffffffffffffffffffffff167fddf252ad1be2c89b69c2b068fc378daa952ba7f163c4a11628f55a4df523b3ef83604051620002499190620003c6565b60405180910390a362000265600083836200026e60201b60201c565b5050565b505050565b505050565b82805462000281906200045b565b90600052602060002090601f016020900481019282620002a55760008555620002f1565b82601f10620002c057805160ff1916838001178555620002f1565b82800160010185558215620002f1579182015b82811115620002f0578251825591602001919060010190620002d3565b5b50905062000300919062000304565b5090565b5b808211156200031f57600081600090555060010162000305565b5090565b60008151905062000334816200051d565b92915050565b600060208284031215620003535762000352620004ef565b5b6000620003638482850162000323565b91505092915050565b60006200037b601f83620003e3565b91506200038882620004f4565b602082019050919050565b6200039e8162000451565b82525050565b60006020820190508181036000830152620003bf816200036c565b9050919050565b6000602082019050620003dd600083018462000393565b92915050565b600082825260208201905092915050565b6000620004018262000451565b91506200040e8362000451565b9250827fffffffffffffffffffffffffffffffffffffffffffffffffffffffffffffffff0382111562000446576200044562000491565b5b828201905092915050565b6000819050919050565b600060028204905060018216806200047457607f821691505b602082108114156200048b576200048a620004c0565b5b50919050565b7f4e487b7100000000000000000000000000000000000000000000000000000000600052601160045260246000fd5b7f4e487b7100000000000000000000000000000000000000000000000000000000600052602260045260246000fd5b600080fd5b7f45524332303a206d696e7420746f20746865207a65726f206164647265737300600082015250565b620005288162000451565b81146200053457600080fd5b50565b6118ac80620005476000396000f3fe608060405234801561001057600080fd5b50600436106100ea5760003560e01c806385826da81161008c578063a9059cbb11610066578063a9059cbb14610273578063daec068d146102a3578063dd62ed3e146102bf578063e1fa7638146102ef576100ea565b806385826da81461020957806395d89b4114610225578063a457c2d714610243576100ea565b806323b872dd116100c857806323b872dd1461015b578063313ce5671461018b57806339509351146101a957806370a08231146101d9576100ea565b806306fdde03146100ef578063095ea7b31461010d57806318160ddd1461013d575b600080fd5b6100f761030b565b604051610104919061126a565b60405180910390f35b61012760048036038101906101229190611028565b61039d565b6040516101349190611226565b60405180910390f35b6101456103bb565b604051610152919061138c565b60405180910390f35b61017560048036038101906101709190610fd5565b6103c5565b6040516101829190611226565b60405180910390f35b6101936104bd565b6040516101a091906113a7565b60405180910390f35b6101c360048036038101906101be9190611028565b6104c6565b6040516101d09190611226565b60405180910390f35b6101f360048036038101906101ee9190610f68565b610572565b604051610200919061138c565b60405180910390f35b610223600480360381019061021e9190611068565b6105ba565b005b61022d6105c8565b60405161023a919061126a565b60405180910390f35b61025d60048036038101906102589190611028565b61065a565b60405161026a9190611226565b60405180910390f35b61028d60048036038101906102889190611028565b610745565b60405161029a9190611226565b60405180910390f35b6102bd60048036038101906102b89190611068565b610763565b005b6102d960048036038101906102d49190610f95565b610771565b6040516102e6919061138c565b60405180910390f35b61030960048036038101906103049190611068565b6107f8565b005b60606003805461031a906114f0565b80601f0160208091040260200160405190810160405280929190818152602001828054610346906114f0565b80156103935780601f1061036857610100808354040283529160200191610393565b820191906000526020600020905b81548152906001019060200180831161037657829003601f168201915b5050505050905090565b60006103b16103aa610968565b8484610970565b6001905092915050565b6000600254905090565b60006103d2848484610b3b565b6000600160008673ffffffffffffffffffffffffffffffffffffffff1673ffffffffffffffffffffffffffffffffffffffff168152602001908152602001600020600061041d610968565b73ffffffffffffffffffffffffffffffffffffffff1673ffffffffffffffffffffffffffffffffffffffff1681526020019081526020016000205490508281101561049d576040517f08c379a0000000000000000000000000000000000000000000000000000000008152600401610494906112ec565b60405180910390fd5b6104b1856104a9610968565b858403610970565b60019150509392505050565b60006012905090565b60006105686104d3610968565b8484600160006104e1610968565b73ffffffffffffffffffffffffffffffffffffffff1673ffffffffffffffffffffffffffffffffffffffff16815260200190815260200160002060008873ffffffffffffffffffffffffffffffffffffffff1673ffffffffffffffffffffffffffffffffffffffff1681526020019081526020016000205461056391906113de565b610970565b6001905092915050565b60008060008373ffffffffffffffffffffffffffffffffffffffff1673ffffffffffffffffffffffffffffffffffffffff168152602001908152602001600020549050919050565b6105c482826107f8565b5050565b6060600480546105d7906114f0565b80601f0160208091040260200160405190810160405280929190818152602001828054610603906114f0565b80156106505780601f1061062557610100808354040283529160200191610650565b820191906000526020600020905b81548152906001019060200180831161063357829003601f168201915b5050505050905090565b60008060016000610669610968565b73ffffffffffffffffffffffffffffffffffffffff1673ffffffffffffffffffffffffffffffffffffffff16815260200190815260200160002060008573ffffffffffffffffffffffffffffffffffffffff1673ffffffffffffffffffffffffffffffffffffffff16815260200190815260200160002054905082811015610726576040517f08c379a000000000000000000000000000000000000000000000000000000000815260040161071d9061134c565b60405180910390fd5b61073a610731610968565b85858403610970565b600191505092915050565b6000610759610752610968565b8484610b3b565b6001905092915050565b61076d82826107f8565b5050565b6000600160008473ffffffffffffffffffffffffffffffffffffffff1673ffffffffffffffffffffffffffffffffffffffff16815260200190815260200160002060008373ffffffffffffffffffffffffffffffffffffffff1673ffffffffffffffffffffffffffffffffffffffff16815260200190815260200160002054905092915050565b6000821015801561080a575060038211155b61081357600080fd5b60008110158015610825575060048111155b61082e57600080fd5b6000606461083a610dbc565b6108449190611522565b90506000600190506000808414801561085e575060328311155b156108775760328161087091906113de565b90506108fd565b600184148015610888575060288311155b156108a157603c8161089a91906113de565b90506108fc565b6002841480156108b25750603c8311155b156108cb576028816108c491906113de565b90506108fb565b6003841480156108dc575060508311155b156108f5576014816108ee91906113de565b90506108fa565b600091505b5b5b5b6000811115610911576109103382610dd4565b5b3373ffffffffffffffffffffffffffffffffffffffff167f78caeb2d4619dafc76ad0bcf19f0f5af6ab35b54e2e15861ca7495eb251fecf68383604051610959929190611241565b60405180910390a25050505050565b600033905090565b600073ffffffffffffffffffffffffffffffffffffffff168373ffffffffffffffffffffffffffffffffffffffff1614156109e0576040517f08c379a00000000000000000000000000000000000000000000000000000000081526004016109d79061132c565b60405180910390fd5b600073ffffffffffffffffffffffffffffffffffffffff168273ffffffffffffffffffffffffffffffffffffffff161415610a50576040517f08c379a0000000000000000000000000000000000000000000000000000000008152600401610a47906112ac565b60405180910390fd5b80600160008573ffffffffffffffffffffffffffffffffffffffff1673ffffffffffffffffffffffffffffffffffffffff16815260200190815260200160002060008473ffffffffffffffffffffffffffffffffffffffff1673ffffffffffffffffffffffffffffffffffffffff168152602001908152602001600020819055508173ffffffffffffffffffffffffffffffffffffffff168373ffffffffffffffffffffffffffffffffffffffff167f8c5be1e5ebec7d5bd14f71427d1e84f3dd0314c0f7b2291e5b200ac8c7c3b92583604051610b2e919061138c565b60405180910390a3505050565b600073ffffffffffffffffffffffffffffffffffffffff168373ffffffffffffffffffffffffffffffffffffffff161415610bab576040517f08c379a0000000000000000000000000000000000000000000000000000000008152600401610ba29061130c565b60405180910390fd5b600073ffffffffffffffffffffffffffffffffffffffff168273ffffffffffffffffffffffffffffffffffffffff161415610c1b576040517f08c379a0000000000000000000000000000000000000000000000000000000008152600401610c129061128c565b60405180910390fd5b610c26838383610f34565b60008060008573ffffffffffffffffffffffffffffffffffffffff1673ffffffffffffffffffffffffffffffffffffffff16815260200190815260200160002054905081811015610cac576040517f08c379a0000000000000000000000000000000000000000000000000000000008152600401610ca3906112cc565b60405180910390fd5b8181036000808673ffffffffffffffffffffffffffffffffffffffff1673ffffffffffffffffffffffffffffffffffffffff16815260200190815260200160002081905550816000808573ffffffffffffffffffffffffffffffffffffffff1673ffffffffffffffffffffffffffffffffffffffff1681526020019081526020016000206000828254610d3f91906113de565b925050819055508273ffffffffffffffffffffffffffffffffffffffff168473ffffffffffffffffffffffffffffffffffffffff167fddf252ad1be2c89b69c2b068fc378daa952ba7f163c4a11628f55a4df523b3ef84604051610da3919061138c565b60405180910390a3610db6848484610f39565b50505050565b6000600143610dcb9190611434565b4060001c905090565b600073ffffffffffffffffffffffffffffffffffffffff168273ffffffffffffffffffffffffffffffffffffffff161415610e44576040517f08c379a0000000000000000000000000000000000000000000000000000000008152600401610e3b9061136c565b60405180910390fd5b610e5060008383610f34565b8060026000828254610e6291906113de565b92505081905550806000808473ffffffffffffffffffffffffffffffffffffffff1673ffffffffffffffffffffffffffffffffffffffff1681526020019081526020016000206000828254610eb791906113de565b925050819055508173ffffffffffffffffffffffffffffffffffffffff16600073ffffffffffffffffffffffffffffffffffffffff167fddf252ad1be2c89b69c2b068fc378daa952ba7f163c4a11628f55a4df523b3ef83604051610f1c919061138c565b60405180910390a3610f3060008383610f39565b5050565b505050565b505050565b600081359050610f4d81611848565b92915050565b600081359050610f628161185f565b92915050565b600060208284031215610f7e57610f7d6115e0565b5b6000610f8c84828501610f3e565b91505092915050565b60008060408385031215610fac57610fab6115e0565b5b6000610fba85828601610f3e565b9250506020610fcb85828601610f3e565b9150509250929050565b600080600060608486031215610fee57610fed6115e0565b5b6000610ffc86828701610f3e565b935050602061100d86828701610f3e565b925050604061101e86828701610f53565b9150509250925092565b6000806040838503121561103f5761103e6115e0565b5b600061104d85828601610f3e565b925050602061105e85828601610f53565b9150509250929050565b6000806040838503121561107f5761107e6115e0565b5b600061108d85828601610f53565b925050602061109e85828601610f53565b9150509250929050565b6110b18161147a565b82525050565b60006110c2826113c2565b6110cc81856113cd565b93506110dc8185602086016114bd565b6110e5816115e5565b840191505092915050565b60006110fd6023836113cd565b9150611108826115f6565b604082019050919050565b60006111206022836113cd565b915061112b82611645565b604082019050919050565b60006111436026836113cd565b915061114e82611694565b604082019050919050565b60006111666028836113cd565b9150611171826116e3565b604082019050919050565b60006111896025836113cd565b915061119482611732565b604082019050919050565b60006111ac6024836113cd565b91506111b782611781565b604082019050919050565b60006111cf6025836113cd565b91506111da826117d0565b604082019050919050565b60006111f2601f836113cd565b91506111fd8261181f565b602082019050919050565b611211816114a6565b82525050565b611220816114b0565b82525050565b600060208201905061123b60008301846110a8565b92915050565b600060408201905061125660008301856110a8565b6112636020830184611208565b9392505050565b6000602082019050818103600083015261128481846110b7565b905092915050565b600060208201905081810360008301526112a5816110f0565b9050919050565b600060208201905081810360008301526112c581611113565b9050919050565b600060208201905081810360008301526112e581611136565b9050919050565b6000602082019050818103600083015261130581611159565b9050919050565b600060208201905081810360008301526113258161117c565b9050919050565b600060208201905081810360008301526113458161119f565b9050919050565b60006020820190508181036000830152611365816111c2565b9050919050565b60006020820190508181036000830152611385816111e5565b9050919050565b60006020820190506113a16000830184611208565b92915050565b60006020820190506113bc6000830184611217565b92915050565b600081519050919050565b600082825260208201905092915050565b60006113e9826114a6565b91506113f4836114a6565b9250827fffffffffffffffffffffffffffffffffffffffffffffffffffffffffffffffff0382111561142957611428611553565b5b828201905092915050565b600061143f826114a6565b915061144a836114a6565b92508282101561145d5761145c611553565b5b828203905092915050565b600061147382611486565b9050919050565b60008115159050919050565b600073ffffffffffffffffffffffffffffffffffffffff82169050919050565b6000819050919050565b600060ff82169050919050565b60005b838110156114db5780820151818401526020810190506114c0565b838111156114ea576000848401525b50505050565b6000600282049050600182168061150857607f821691505b6020821081141561151c5761151b6115b1565b5b50919050565b600061152d826114a6565b9150611538836114a6565b92508261154857611547611582565b5b828206905092915050565b7f4e487b7100000000000000000000000000000000000000000000000000000000600052601160045260246000fd5b7f4e487b7100000000000000000000000000000000000000000000000000000000600052601260045260246000fd5b7f4e487b7100000000000000000000000000000000000000000000000000000000600052602260045260246000fd5b600080fd5b6000601f19601f8301169050919050565b7f45524332303a207472616e7366657220746f20746865207a65726f206164647260008201527f6573730000000000000000000000000000000000000000000000000000000000602082015250565b7f45524332303a20617070726f766520746f20746865207a65726f20616464726560008201527f7373000000000000000000000000000000000000000000000000000000000000602082015250565b7f45524332303a207472616e7366657220616d6f756e742065786365656473206260008201527f616c616e63650000000000000000000000000000000000000000000000000000602082015250565b7f45524332303a207472616e7366657220616d6f756e742065786365656473206160008201527f6c6c6f77616e6365000000000000000000000000000000000000000000000000602082015250565b7f45524332303a207472616e736665722066726f6d20746865207a65726f20616460008201527f6472657373000000000000000000000000000000000000000000000000000000602082015250565b7f45524332303a20617070726f76652066726f6d20746865207a65726f2061646460008201527f7265737300000000000000000000000000000000000000000000000000000000602082015250565b7f45524332303a2064656372656173656420616c6c6f77616e63652062656c6f7760008201527f207a65726f000000000000000000000000000000000000000000000000000000602082015250565b7f45524332303a206d696e7420746f20746865207a65726f206164647265737300600082015250565b61185181611468565b811461185c57600080fd5b50565b611868816114a6565b811461187357600080fd5b5056fea264697066735822122015cb394f7a22f78d6706b1c8d61f87b60204ac6093c1b0ba2216f07e8751e88264736f6c63430008070033",
  "immutableReferences": {},
  "source": "pragma solidity ^0.8.0;\n\nimport \"@openzeppelin/contracts/token/ERC20/ERC20.sol\";\n\n// @ref https://forum.openzeppelin.com/t/deploy-contracts-to-a-public-network/1653\ncontract Heroes is ERC20 {\n\n    event AttackResult(address indexed from, bool result, uint reward);\n\n    constructor(uint256 initialSupply) ERC20(\"Nam\", \"NAM\") {\n        _mint(msg.sender, initialSupply);\n    }\n\n    // @ref https://betterprogramming.pub/how-to-generate-truly-random-numbers-in-solidity-and-blockchain-9ced6472dbdf\n    function random() internal view returns(uint){\n        return uint(blockhash(block.number - 1));\n    }\n\n    // nh nhau vi rng\n    function attack(uint heroType, uint dragonType) public {\n\n        require(heroType >= 0 && heroType <= 3); // h tr 4 loi siu anh hng: healer, knight, hammer, mage\n        require(dragonType >= 0 && dragonType <= 4); // h tr 4 loi rng, t l thng ln lt l: 20%, 40%, 60%, 80%\n\n        uint rand = random() % 100;\n\n        bool result;\n        result = true;\n        uint reward;\n        // tr v kt qu tu theo t l thng\n        if (dragonType == 0 && rand <= 50) { // ng l l 20% nhng cho 50%  test\n             reward += 50;\n        }\n        else if (dragonType == 1 && rand <= 40) {\n            reward += 60;\n        }\n        else if (dragonType == 2 && rand <= 60) {\n            reward += 40;\n        }\n        else if (dragonType == 3 && rand <= 80) {\n            reward += 20;\n        } else {\n            result = false;\n        }\n        if(reward > 0) {\n            _mint(msg.sender, reward);\n        }\n        emit AttackResult(msg.sender, result, reward);\n    }\n\n    function depend(uint heroType, uint dragonType) public {\n        attack(heroType, dragonType);\n    }\n\n    function special(uint heroType, uint dragonType) public  {\n        attack(heroType, dragonType);\n    }\n}",
  "sourcePath": "/Users/namphan/nft/contracts/Heroes.sol",
  "compiler": {
    "name": "solc",
    "version": "0.8.7+commit.e28d00a7.Emscripten.clang"
  },
  "schemaVersion": "3.4.3",
  "updatedAt": "2021-09-11T05:07:46.787Z",
  "networkType": "ethereum",
  "devdoc": {
    "kind": "dev",
    "methods": {
      "allowance(address,address)": {
        "details": "See {IERC20-allowance}."
      },
      "approve(address,uint256)": {
        "details": "See {IERC20-approve}. Requirements: - `spender` cannot be the zero address."
      },
      "balanceOf(address)": {
        "details": "See {IERC20-balanceOf}."
      },
      "decimals()": {
        "details": "Returns the number of decimals used to get its user representation. For example, if `decimals` equals `2`, a balance of `505` tokens should be displayed to a user as `5.05` (`505 / 10 ** 2`). Tokens usually opt for a value of 18, imitating the relationship between Ether and Wei. This is the value {ERC20} uses, unless this function is overridden; NOTE: This information is only used for _display_ purposes: it in no way affects any of the arithmetic of the contract, including {IERC20-balanceOf} and {IERC20-transfer}."
      },
      "decreaseAllowance(address,uint256)": {
        "details": "Atomically decreases the allowance granted to `spender` by the caller. This is an alternative to {approve} that can be used as a mitigation for problems described in {IERC20-approve}. Emits an {Approval} event indicating the updated allowance. Requirements: - `spender` cannot be the zero address. - `spender` must have allowance for the caller of at least `subtractedValue`."
      },
      "increaseAllowance(address,uint256)": {
        "details": "Atomically increases the allowance granted to `spender` by the caller. This is an alternative to {approve} that can be used as a mitigation for problems described in {IERC20-approve}. Emits an {Approval} event indicating the updated allowance. Requirements: - `spender` cannot be the zero address."
      },
      "name()": {
        "details": "Returns the name of the token."
      },
      "symbol()": {
        "details": "Returns the symbol of the token, usually a shorter version of the name."
      },
      "totalSupply()": {
        "details": "See {IERC20-totalSupply}."
      },
      "transfer(address,uint256)": {
        "details": "See {IERC20-transfer}. Requirements: - `recipient` cannot be the zero address. - the caller must have a balance of at least `amount`."
      },
      "transferFrom(address,address,uint256)": {
        "details": "See {IERC20-transferFrom}. Emits an {Approval} event indicating the updated allowance. This is not required by the EIP. See the note at the beginning of {ERC20}. Requirements: - `sender` and `recipient` cannot be the zero address. - `sender` must have a balance of at least `amount`. - the caller must have allowance for ``sender``'s tokens of at least `amount`."
      }
    },
    "version": 1
  },
  "userdoc": {
    "kind": "user",
    "methods": {},
    "version": 1
  }
}