{
  "contractName": "Heroes",
  "abi": [
    {
      "inputs": [
        {
          "internalType": "uint256",
          "name": "initialSupply",
          "type": "uint256"
        }
      ],
      "stateMutability": "nonpayable",
      "type": "constructor"
    },
    {
      "anonymous": false,
      "inputs": [
        {
          "indexed": true,
          "internalType": "address",
          "name": "owner",
          "type": "address"
        },
        {
          "indexed": true,
          "internalType": "address",
          "name": "spender",
          "type": "address"
        },
        {
          "indexed": false,
          "internalType": "uint256",
          "name": "value",
          "type": "uint256"
        }
      ],
      "name": "Approval",
      "type": "event"
    },
    {
      "anonymous": false,
      "inputs": [
        {
          "indexed": true,
          "internalType": "address",
          "name": "from",
          "type": "address"
        },
        {
          "indexed": false,
          "internalType": "bool",
          "name": "result",
          "type": "bool"
        },
        {
          "indexed": false,
          "internalType": "uint256",
          "name": "reward",
          "type": "uint256"
        }
      ],
      "name": "AttackResult",
      "type": "event"
    },
    {
      "anonymous": false,
      "inputs": [
        {
          "indexed": true,
          "internalType": "address",
          "name": "from",
          "type": "address"
        },
        {
          "indexed": true,
          "internalType": "address",
          "name": "to",
          "type": "address"
        },
        {
          "indexed": false,
          "internalType": "uint256",
          "name": "value",
          "type": "uint256"
        }
      ],
      "name": "Transfer",
      "type": "event"
    },
    {
      "inputs": [
        {
          "internalType": "address",
          "name": "owner",
          "type": "address"
        },
        {
          "internalType": "address",
          "name": "spender",
          "type": "address"
        }
      ],
      "name": "allowance",
      "outputs": [
        {
          "internalType": "uint256",
          "name": "",
          "type": "uint256"
        }
      ],
      "stateMutability": "view",
      "type": "function",
      "constant": true
    },
    {
      "inputs": [
        {
          "internalType": "address",
          "name": "spender",
          "type": "address"
        },
        {
          "internalType": "uint256",
          "name": "amount",
          "type": "uint256"
        }
      ],
      "name": "approve",
      "outputs": [
        {
          "internalType": "bool",
          "name": "",
          "type": "bool"
        }
      ],
      "stateMutability": "nonpayable",
      "type": "function"
    },
    {
      "inputs": [
        {
          "internalType": "address",
          "name": "account",
          "type": "address"
        }
      ],
      "name": "balanceOf",
      "outputs": [
        {
          "internalType": "uint256",
          "name": "",
          "type": "uint256"
        }
      ],
      "stateMutability": "view",
      "type": "function",
      "constant": true
    },
    {
      "inputs": [],
      "name": "decimals",
      "outputs": [
        {
          "internalType": "uint8",
          "name": "",
          "type": "uint8"
        }
      ],
      "stateMutability": "view",
      "type": "function",
      "constant": true
    },
    {
      "inputs": [
        {
          "internalType": "address",
          "name": "spender",
          "type": "address"
        },
        {
          "internalType": "uint256",
          "name": "subtractedValue",
          "type": "uint256"
        }
      ],
      "name": "decreaseAllowance",
      "outputs": [
        {
          "internalType": "bool",
          "name": "",
          "type": "bool"
        }
      ],
      "stateMutability": "nonpayable",
      "type": "function"
    },
    {
      "inputs": [
        {
          "internalType": "address",
          "name": "spender",
          "type": "address"
        },
        {
          "internalType": "uint256",
          "name": "addedValue",
          "type": "uint256"
        }
      ],
      "name": "increaseAllowance",
      "outputs": [
        {
          "internalType": "bool",
          "name": "",
          "type": "bool"
        }
      ],
      "stateMutability": "nonpayable",
      "type": "function"
    },
    {
      "inputs": [],
      "name": "name",
      "outputs": [
        {
          "internalType": "string",
          "name": "",
          "type": "string"
        }
      ],
      "stateMutability": "view",
      "type": "function",
      "constant": true
    },
    {
      "inputs": [],
      "name": "symbol",
      "outputs": [
        {
          "internalType": "string",
          "name": "",
          "type": "string"
        }
      ],
      "stateMutability": "view",
      "type": "function",
      "constant": true
    },
    {
      "inputs": [],
      "name": "totalSupply",
      "outputs": [
        {
          "internalType": "uint256",
          "name": "",
          "type": "uint256"
        }
      ],
      "stateMutability": "view",
      "type": "function",
      "constant": true
    },
    {
      "inputs": [
        {
          "internalType": "address",
          "name": "recipient",
          "type": "address"
        },
        {
          "internalType": "uint256",
          "name": "amount",
          "type": "uint256"
        }
      ],
      "name": "transfer",
      "outputs": [
        {
          "internalType": "bool",
          "name": "",
          "type": "bool"
        }
      ],
      "stateMutability": "nonpayable",
      "type": "function"
    },
    {
      "inputs": [
        {
          "internalType": "address",
          "name": "sender",
          "type": "address"
        },
        {
          "internalType": "address",
          "name": "recipient",
          "type": "address"
        },
        {
          "internalType": "uint256",
          "name": "amount",
          "type": "uint256"
        }
      ],
      "name": "transferFrom",
      "outputs": [
        {
          "internalType": "bool",
          "name": "",
          "type": "bool"
        }
      ],
      "stateMutability": "nonpayable",
      "type": "function"
    },
    {
      "inputs": [
        {
          "internalType": "uint256",
          "name": "heroType",
          "type": "uint256"
        },
        {
          "internalType": "uint256",
          "name": "dragonType",
          "type": "uint256"
        }
      ],
      "name": "attack",
      "outputs": [],
      "stateMutability": "nonpayable",
      "type": "function"
    },
    {
      "inputs": [
        {
          "internalType": "uint256",
          "name": "heroType",
          "type": "uint256"
        },
        {
          "internalType": "uint256",
          "name": "dragonType",
          "type": "uint256"
        }
      ],
      "name": "depend",
      "outputs": [],
      "stateMutability": "nonpayable",
      "type": "function"
    },
    {
      "inputs": [
        {
          "internalType": "uint256",
          "name": "heroType",
          "type": "uint256"
        },
        {
          "internalType": "uint256",
          "name": "dragonType",
          "type": "uint256"
        }
      ],
      "name": "special",
      "outputs": [],
      "stateMutability": "nonpayable",
      "type": "function"
    }
  ],
  "bytecode": "0x60806040523480156200001157600080fd5b5060405162001e2738038062001e2783398181016040528101906200003791906200033a565b6040518060400160405280600381526020017f4e616d00000000000000000000000000000000000000000000000000000000008152506040518060400160405280600381526020017f4e414d00000000000000000000000000000000000000000000000000000000008152508160039080519060200190620000bb92919062000273565b508060049080519060200190620000d492919062000273565b505050620000e93382620000f060201b60201c565b5062000537565b600073ffffffffffffffffffffffffffffffffffffffff168273ffffffffffffffffffffffffffffffffffffffff16141562000163576040517f08c379a00000000000000000000000000000000000000000000000000000000081526004016200015a90620003a4565b60405180910390fd5b62000177600083836200026960201b60201c565b80600260008282546200018b9190620003f4565b92505081905550806000808473ffffffffffffffffffffffffffffffffffffffff1673ffffffffffffffffffffffffffffffffffffffff1681526020019081526020016000206000828254620001e29190620003f4565b925050819055508173ffffffffffffffffffffffffffffffffffffffff16600073ffffffffffffffffffffffffffffffffffffffff167fddf252ad1be2c89b69c2b068fc378daa952ba7f163c4a11628f55a4df523b3ef83604051620002499190620003c6565b60405180910390a362000265600083836200026e60201b60201c565b5050565b505050565b505050565b82805462000281906200045b565b90600052602060002090601f016020900481019282620002a55760008555620002f1565b82601f10620002c057805160ff1916838001178555620002f1565b82800160010185558215620002f1579182015b82811115620002f0578251825591602001919060010190620002d3565b5b50905062000300919062000304565b5090565b5b808211156200031f57600081600090555060010162000305565b5090565b60008151905062000334816200051d565b92915050565b600060208284031215620003535762000352620004ef565b5b6000620003638482850162000323565b91505092915050565b60006200037b601f83620003e3565b91506200038882620004f4565b602082019050919050565b6200039e8162000451565b82525050565b60006020820190508181036000830152620003bf816200036c565b9050919050565b6000602082019050620003dd600083018462000393565b92915050565b600082825260208201905092915050565b6000620004018262000451565b91506200040e8362000451565b9250827fffffffffffffffffffffffffffffffffffffffffffffffffffffffffffffffff0382111562000446576200044562000491565b5b828201905092915050565b6000819050919050565b600060028204905060018216806200047457607f821691505b602082108114156200048b576200048a620004c0565b5b50919050565b7f4e487b7100000000000000000000000000000000000000000000000000000000600052601160045260246000fd5b7f4e487b7100000000000000000000000000000000000000000000000000000000600052602260045260246000fd5b600080fd5b7f45524332303a206d696e7420746f20746865207a65726f206164647265737300600082015250565b620005288162000451565b81146200053457600080fd5b50565b6118e080620005476000396000f3fe608060405234801561001057600080fd5b50600436106100ea5760003560e01c806385826da81161008c578063a9059cbb11610066578063a9059cbb14610273578063daec068d146102a3578063dd62ed3e146102bf578063e1fa7638146102ef576100ea565b806385826da81461020957806395d89b4114610225578063a457c2d714610243576100ea565b806323b872dd116100c857806323b872dd1461015b578063313ce5671461018b57806339509351146101a957806370a08231146101d9576100ea565b806306fdde03146100ef578063095ea7b31461010d57806318160ddd1461013d575b600080fd5b6100f761030b565b60405161010491906112c8565b60405180910390f35b61012760048036038101906101229190611043565b61039d565b6040516101349190611284565b60405180910390f35b6101456103bb565b60405161015291906113ea565b60405180910390f35b61017560048036038101906101709190610ff0565b6103c5565b6040516101829190611284565b60405180910390f35b6101936104bd565b6040516101a09190611405565b60405180910390f35b6101c360048036038101906101be9190611043565b6104c6565b6040516101d09190611284565b60405180910390f35b6101f360048036038101906101ee9190610f83565b610572565b60405161020091906113ea565b60405180910390f35b610223600480360381019061021e9190611083565b6105ba565b005b61022d6105c8565b60405161023a91906112c8565b60405180910390f35b61025d60048036038101906102589190611043565b61065a565b60405161026a9190611284565b60405180910390f35b61028d60048036038101906102889190611043565b610745565b60405161029a9190611284565b60405180910390f35b6102bd60048036038101906102b89190611083565b610763565b005b6102d960048036038101906102d49190610fb0565b610771565b6040516102e691906113ea565b60405180910390f35b61030960048036038101906103049190611083565b6107f8565b005b60606003805461031a9061151a565b80601f01602080910402602001604051908101604052809291908181526020018280546103469061151a565b80156103935780601f1061036857610100808354040283529160200191610393565b820191906000526020600020905b81548152906001019060200180831161037657829003601f168201915b5050505050905090565b60006103b16103aa610968565b8484610970565b6001905092915050565b6000600254905090565b60006103d2848484610b3b565b6000600160008673ffffffffffffffffffffffffffffffffffffffff1673ffffffffffffffffffffffffffffffffffffffff168152602001908152602001600020600061041d610968565b73ffffffffffffffffffffffffffffffffffffffff1673ffffffffffffffffffffffffffffffffffffffff1681526020019081526020016000205490508281101561049d576040517f08c379a00000000000000000000000000000000000000000000000000000000081526004016104949061134a565b60405180910390fd5b6104b1856104a9610968565b858403610970565b60019150509392505050565b60006012905090565b60006105686104d3610968565b8484600160006104e1610968565b73ffffffffffffffffffffffffffffffffffffffff1673ffffffffffffffffffffffffffffffffffffffff16815260200190815260200160002060008873ffffffffffffffffffffffffffffffffffffffff1673ffffffffffffffffffffffffffffffffffffffff16815260200190815260200160002054610563919061143c565b610970565b6001905092915050565b60008060008373ffffffffffffffffffffffffffffffffffffffff1673ffffffffffffffffffffffffffffffffffffffff168152602001908152602001600020549050919050565b6105c482826107f8565b5050565b6060600480546105d79061151a565b80601f01602080910402602001604051908101604052809291908181526020018280546106039061151a565b80156106505780601f1061062557610100808354040283529160200191610650565b820191906000526020600020905b81548152906001019060200180831161063357829003601f168201915b5050505050905090565b60008060016000610669610968565b73ffffffffffffffffffffffffffffffffffffffff1673ffffffffffffffffffffffffffffffffffffffff16815260200190815260200160002060008573ffffffffffffffffffffffffffffffffffffffff1673ffffffffffffffffffffffffffffffffffffffff16815260200190815260200160002054905082811015610726576040517f08c379a000000000000000000000000000000000000000000000000000000000815260040161071d906113aa565b60405180910390fd5b61073a610731610968565b85858403610970565b600191505092915050565b6000610759610752610968565b8484610b3b565b6001905092915050565b61076d82826107f8565b5050565b6000600160008473ffffffffffffffffffffffffffffffffffffffff1673ffffffffffffffffffffffffffffffffffffffff16815260200190815260200160002060008373ffffffffffffffffffffffffffffffffffffffff1673ffffffffffffffffffffffffffffffffffffffff16815260200190815260200160002054905092915050565b6000821015801561080a575060038211155b61081357600080fd5b60008110158015610825575060048111155b61082e57600080fd5b6000606461083a610dbc565b6108449190611556565b90506000600190506000808414801561085e575060328311155b1561087757603281610870919061143c565b90506108fd565b600184148015610888575060288311155b156108a157603c8161089a919061143c565b90506108fc565b6002841480156108b25750603c8311155b156108cb576028816108c4919061143c565b90506108fb565b6003841480156108dc575060508311155b156108f5576014816108ee919061143c565b90506108fa565b600091505b5b5b5b6000811115610911576109103382610def565b5b3373ffffffffffffffffffffffffffffffffffffffff167f78caeb2d4619dafc76ad0bcf19f0f5af6ab35b54e2e15861ca7495eb251fecf6838360405161095992919061129f565b60405180910390a25050505050565b600033905090565b600073ffffffffffffffffffffffffffffffffffffffff168373ffffffffffffffffffffffffffffffffffffffff1614156109e0576040517f08c379a00000000000000000000000000000000000000000000000000000000081526004016109d79061138a565b60405180910390fd5b600073ffffffffffffffffffffffffffffffffffffffff168273ffffffffffffffffffffffffffffffffffffffff161415610a50576040517f08c379a0000000000000000000000000000000000000000000000000000000008152600401610a479061130a565b60405180910390fd5b80600160008573ffffffffffffffffffffffffffffffffffffffff1673ffffffffffffffffffffffffffffffffffffffff16815260200190815260200160002060008473ffffffffffffffffffffffffffffffffffffffff1673ffffffffffffffffffffffffffffffffffffffff168152602001908152602001600020819055508173ffffffffffffffffffffffffffffffffffffffff168373ffffffffffffffffffffffffffffffffffffffff167f8c5be1e5ebec7d5bd14f71427d1e84f3dd0314c0f7b2291e5b200ac8c7c3b92583604051610b2e91906113ea565b60405180910390a3505050565b600073ffffffffffffffffffffffffffffffffffffffff168373ffffffffffffffffffffffffffffffffffffffff161415610bab576040517f08c379a0000000000000000000000000000000000000000000000000000000008152600401610ba29061136a565b60405180910390fd5b600073ffffffffffffffffffffffffffffffffffffffff168273ffffffffffffffffffffffffffffffffffffffff161415610c1b576040517f08c379a0000000000000000000000000000000000000000000000000000000008152600401610c12906112ea565b60405180910390fd5b610c26838383610f4f565b60008060008573ffffffffffffffffffffffffffffffffffffffff1673ffffffffffffffffffffffffffffffffffffffff16815260200190815260200160002054905081811015610cac576040517f08c379a0000000000000000000000000000000000000000000000000000000008152600401610ca39061132a565b60405180910390fd5b8181036000808673ffffffffffffffffffffffffffffffffffffffff1673ffffffffffffffffffffffffffffffffffffffff16815260200190815260200160002081905550816000808573ffffffffffffffffffffffffffffffffffffffff1673ffffffffffffffffffffffffffffffffffffffff1681526020019081526020016000206000828254610d3f919061143c565b925050819055508273ffffffffffffffffffffffffffffffffffffffff168473ffffffffffffffffffffffffffffffffffffffff167fddf252ad1be2c89b69c2b068fc378daa952ba7f163c4a11628f55a4df523b3ef84604051610da391906113ea565b60405180910390a3610db6848484610f54565b50505050565b60004442604051602001610dd1929190611258565b6040516020818303038152906040528051906020012060001c905090565b600073ffffffffffffffffffffffffffffffffffffffff168273ffffffffffffffffffffffffffffffffffffffff161415610e5f576040517f08c379a0000000000000000000000000000000000000000000000000000000008152600401610e56906113ca565b60405180910390fd5b610e6b60008383610f4f565b8060026000828254610e7d919061143c565b92505081905550806000808473ffffffffffffffffffffffffffffffffffffffff1673ffffffffffffffffffffffffffffffffffffffff1681526020019081526020016000206000828254610ed2919061143c565b925050819055508173ffffffffffffffffffffffffffffffffffffffff16600073ffffffffffffffffffffffffffffffffffffffff167fddf252ad1be2c89b69c2b068fc378daa952ba7f163c4a11628f55a4df523b3ef83604051610f3791906113ea565b60405180910390a3610f4b60008383610f54565b5050565b505050565b505050565b600081359050610f688161187c565b92915050565b600081359050610f7d81611893565b92915050565b600060208284031215610f9957610f98611614565b5b6000610fa784828501610f59565b91505092915050565b60008060408385031215610fc757610fc6611614565b5b6000610fd585828601610f59565b9250506020610fe685828601610f59565b9150509250929050565b60008060006060848603121561100957611008611614565b5b600061101786828701610f59565b935050602061102886828701610f59565b925050604061103986828701610f6e565b9150509250925092565b6000806040838503121561105a57611059611614565b5b600061106885828601610f59565b925050602061107985828601610f6e565b9150509250929050565b6000806040838503121561109a57611099611614565b5b60006110a885828601610f6e565b92505060206110b985828601610f6e565b9150509250929050565b6110cc816114a4565b82525050565b60006110dd82611420565b6110e7818561142b565b93506110f78185602086016114e7565b61110081611619565b840191505092915050565b600061111860238361142b565b91506111238261162a565b604082019050919050565b600061113b60228361142b565b915061114682611679565b604082019050919050565b600061115e60268361142b565b9150611169826116c8565b604082019050919050565b600061118160288361142b565b915061118c82611717565b604082019050919050565b60006111a460258361142b565b91506111af82611766565b604082019050919050565b60006111c760248361142b565b91506111d2826117b5565b604082019050919050565b60006111ea60258361142b565b91506111f582611804565b604082019050919050565b600061120d601f8361142b565b915061121882611853565b602082019050919050565b61122c816114d0565b82525050565b61124361123e826114d0565b61154c565b82525050565b611252816114da565b82525050565b60006112648285611232565b6020820191506112748284611232565b6020820191508190509392505050565b600060208201905061129960008301846110c3565b92915050565b60006040820190506112b460008301856110c3565b6112c16020830184611223565b9392505050565b600060208201905081810360008301526112e281846110d2565b905092915050565b600060208201905081810360008301526113038161110b565b9050919050565b600060208201905081810360008301526113238161112e565b9050919050565b6000602082019050818103600083015261134381611151565b9050919050565b6000602082019050818103600083015261136381611174565b9050919050565b6000602082019050818103600083015261138381611197565b9050919050565b600060208201905081810360008301526113a3816111ba565b9050919050565b600060208201905081810360008301526113c3816111dd565b9050919050565b600060208201905081810360008301526113e381611200565b9050919050565b60006020820190506113ff6000830184611223565b92915050565b600060208201905061141a6000830184611249565b92915050565b600081519050919050565b600082825260208201905092915050565b6000611447826114d0565b9150611452836114d0565b9250827fffffffffffffffffffffffffffffffffffffffffffffffffffffffffffffffff0382111561148757611486611587565b5b828201905092915050565b600061149d826114b0565b9050919050565b60008115159050919050565b600073ffffffffffffffffffffffffffffffffffffffff82169050919050565b6000819050919050565b600060ff82169050919050565b60005b838110156115055780820151818401526020810190506114ea565b83811115611514576000848401525b50505050565b6000600282049050600182168061153257607f821691505b60208210811415611546576115456115e5565b5b50919050565b6000819050919050565b6000611561826114d0565b915061156c836114d0565b92508261157c5761157b6115b6565b5b828206905092915050565b7f4e487b7100000000000000000000000000000000000000000000000000000000600052601160045260246000fd5b7f4e487b7100000000000000000000000000000000000000000000000000000000600052601260045260246000fd5b7f4e487b7100000000000000000000000000000000000000000000000000000000600052602260045260246000fd5b600080fd5b6000601f19601f8301169050919050565b7f45524332303a207472616e7366657220746f20746865207a65726f206164647260008201527f6573730000000000000000000000000000000000000000000000000000000000602082015250565b7f45524332303a20617070726f766520746f20746865207a65726f20616464726560008201527f7373000000000000000000000000000000000000000000000000000000000000602082015250565b7f45524332303a207472616e7366657220616d6f756e742065786365656473206260008201527f616c616e63650000000000000000000000000000000000000000000000000000602082015250565b7f45524332303a207472616e7366657220616d6f756e742065786365656473206160008201527f6c6c6f77616e6365000000000000000000000000000000000000000000000000602082015250565b7f45524332303a207472616e736665722066726f6d20746865207a65726f20616460008201527f6472657373000000000000000000000000000000000000000000000000000000602082015250565b7f45524332303a20617070726f76652066726f6d20746865207a65726f2061646460008201527f7265737300000000000000000000000000000000000000000000000000000000602082015250565b7f45524332303a2064656372656173656420616c6c6f77616e63652062656c6f7760008201527f207a65726f000000000000000000000000000000000000000000000000000000602082015250565b7f45524332303a206d696e7420746f20746865207a65726f206164647265737300600082015250565b61188581611492565b811461189057600080fd5b50565b61189c816114d0565b81146118a757600080fd5b5056fea264697066735822122029a067843ce5f942e7a00419a7f868c8538dc4ff720f6e00bdc208c126f6dea664736f6c63430008070033",
  "immutableReferences": {},
  "source": "pragma solidity ^0.8.0;\n\nimport \"@openzeppelin/contracts/token/ERC20/ERC20.sol\";\n\n// @ref https://forum.openzeppelin.com/t/deploy-contracts-to-a-public-network/1653\ncontract Heroes is ERC20 {\n\n    event AttackResult(address indexed from, bool result, uint reward);\n\n    constructor(uint256 initialSupply) ERC20(\"Nam\", \"NAM\") {\n        _mint(msg.sender, initialSupply);\n    }\n\n    // @ref https://betterprogramming.pub/how-to-generate-truly-random-numbers-in-solidity-and-blockchain-9ced6472dbdf\n    function random() private view returns(uint){\n        return uint(keccak256(abi.encodePacked(block.difficulty, block.timestamp)));\n    }\n\n    // nh nhau vi rng\n    function attack(uint heroType, uint dragonType) public {\n\n        require(heroType >= 0 && heroType <= 3); // h tr 4 loi siu anh hng: healer, knight, hammer, mage\n        require(dragonType >= 0 && dragonType <= 4); // h tr 4 loi rng, t l thng ln lt l: 20%, 40%, 60%, 80%\n\n        uint rand = random() % 100;\n\n        bool result;\n        result = true;\n        uint reward;\n        // tr v kt qu tu theo t l thng\n        if (dragonType == 0 && rand <= 50) { // ng l l 20% nhng cho 50%  test\n             reward += 50;\n        }\n        else if (dragonType == 1 && rand <= 40) {\n            reward += 60;\n        }\n        else if (dragonType == 2 && rand <= 60) {\n            reward += 40;\n        }\n        else if (dragonType == 3 && rand <= 80) {\n            reward += 20;\n        } else {\n            result = false;\n        }\n        if(reward > 0) {\n            _mint(msg.sender, reward);\n        }\n        emit AttackResult(msg.sender, result, reward);\n    }\n\n    function depend(uint heroType, uint dragonType) public {\n        attack(heroType, dragonType);\n    }\n\n    function special(uint heroType, uint dragonType) public  {\n        attack(heroType, dragonType);\n    }\n}",
  "sourcePath": "/Users/namphan/nft/contracts/Heroes.sol",
  "compiler": {
    "name": "solc",
    "version": "0.8.7+commit.e28d00a7.Emscripten.clang"
  },
  "schemaVersion": "3.4.3",
  "updatedAt": "2021-09-11T04:57:57.391Z",
  "networkType": "ethereum",
  "devdoc": {
    "kind": "dev",
    "methods": {
      "allowance(address,address)": {
        "details": "See {IERC20-allowance}."
      },
      "approve(address,uint256)": {
        "details": "See {IERC20-approve}. Requirements: - `spender` cannot be the zero address."
      },
      "balanceOf(address)": {
        "details": "See {IERC20-balanceOf}."
      },
      "decimals()": {
        "details": "Returns the number of decimals used to get its user representation. For example, if `decimals` equals `2`, a balance of `505` tokens should be displayed to a user as `5.05` (`505 / 10 ** 2`). Tokens usually opt for a value of 18, imitating the relationship between Ether and Wei. This is the value {ERC20} uses, unless this function is overridden; NOTE: This information is only used for _display_ purposes: it in no way affects any of the arithmetic of the contract, including {IERC20-balanceOf} and {IERC20-transfer}."
      },
      "decreaseAllowance(address,uint256)": {
        "details": "Atomically decreases the allowance granted to `spender` by the caller. This is an alternative to {approve} that can be used as a mitigation for problems described in {IERC20-approve}. Emits an {Approval} event indicating the updated allowance. Requirements: - `spender` cannot be the zero address. - `spender` must have allowance for the caller of at least `subtractedValue`."
      },
      "increaseAllowance(address,uint256)": {
        "details": "Atomically increases the allowance granted to `spender` by the caller. This is an alternative to {approve} that can be used as a mitigation for problems described in {IERC20-approve}. Emits an {Approval} event indicating the updated allowance. Requirements: - `spender` cannot be the zero address."
      },
      "name()": {
        "details": "Returns the name of the token."
      },
      "symbol()": {
        "details": "Returns the symbol of the token, usually a shorter version of the name."
      },
      "totalSupply()": {
        "details": "See {IERC20-totalSupply}."
      },
      "transfer(address,uint256)": {
        "details": "See {IERC20-transfer}. Requirements: - `recipient` cannot be the zero address. - the caller must have a balance of at least `amount`."
      },
      "transferFrom(address,address,uint256)": {
        "details": "See {IERC20-transferFrom}. Emits an {Approval} event indicating the updated allowance. This is not required by the EIP. See the note at the beginning of {ERC20}. Requirements: - `sender` and `recipient` cannot be the zero address. - `sender` must have a balance of at least `amount`. - the caller must have allowance for ``sender``'s tokens of at least `amount`."
      }
    },
    "version": 1
  },
  "userdoc": {
    "kind": "user",
    "methods": {},
    "version": 1
  }
}